{
    "contractName": "ABCNFT",
    "abi": [
        {
            "inputs": [],
            "stateMutability": "nonpayable",
            "type": "constructor"
        },
        {
            "anonymous": false,
            "inputs": [
                {
                    "indexed": true,
                    "internalType": "address",
                    "name": "owner",
                    "type": "address"
                },
                {
                    "indexed": true,
                    "internalType": "address",
                    "name": "approved",
                    "type": "address"
                },
                {
                    "indexed": true,
                    "internalType": "uint256",
                    "name": "tokenId",
                    "type": "uint256"
                }
            ],
            "name": "Approval",
            "type": "event"
        },
        {
            "anonymous": false,
            "inputs": [
                {
                    "indexed": true,
                    "internalType": "address",
                    "name": "owner",
                    "type": "address"
                },
                {
                    "indexed": true,
                    "internalType": "address",
                    "name": "operator",
                    "type": "address"
                },
                {
                    "indexed": false,
                    "internalType": "bool",
                    "name": "approved",
                    "type": "bool"
                }
            ],
            "name": "ApprovalForAll",
            "type": "event"
        },
        {
            "anonymous": false,
            "inputs": [
                {
                    "indexed": true,
                    "internalType": "address",
                    "name": "previousOwner",
                    "type": "address"
                },
                {
                    "indexed": true,
                    "internalType": "address",
                    "name": "newOwner",
                    "type": "address"
                }
            ],
            "name": "OwnershipTransferred",
            "type": "event"
        },
        {
            "anonymous": false,
            "inputs": [
                {
                    "indexed": true,
                    "internalType": "address",
                    "name": "from",
                    "type": "address"
                },
                {
                    "indexed": true,
                    "internalType": "address",
                    "name": "to",
                    "type": "address"
                },
                {
                    "indexed": true,
                    "internalType": "uint256",
                    "name": "tokenId",
                    "type": "uint256"
                }
            ],
            "name": "Transfer",
            "type": "event"
        },
        {
            "inputs": [
                {
                    "internalType": "address",
                    "name": "to",
                    "type": "address"
                },
                {
                    "internalType": "uint256",
                    "name": "tokenId",
                    "type": "uint256"
                }
            ],
            "name": "approve",
            "outputs": [],
            "stateMutability": "nonpayable",
            "type": "function"
        },
        {
            "inputs": [
                {
                    "internalType": "address",
                    "name": "owner",
                    "type": "address"
                }
            ],
            "name": "balanceOf",
            "outputs": [
                {
                    "internalType": "uint256",
                    "name": "",
                    "type": "uint256"
                }
            ],
            "stateMutability": "view",
            "type": "function"
        },
        {
            "inputs": [
                {
                    "internalType": "uint256",
                    "name": "tokenId",
                    "type": "uint256"
                }
            ],
            "name": "getApproved",
            "outputs": [
                {
                    "internalType": "address",
                    "name": "",
                    "type": "address"
                }
            ],
            "stateMutability": "view",
            "type": "function"
        },
        {
            "inputs": [
                {
                    "internalType": "address",
                    "name": "owner",
                    "type": "address"
                },
                {
                    "internalType": "address",
                    "name": "operator",
                    "type": "address"
                }
            ],
            "name": "isApprovedForAll",
            "outputs": [
                {
                    "internalType": "bool",
                    "name": "",
                    "type": "bool"
                }
            ],
            "stateMutability": "view",
            "type": "function"
        },
        {
            "inputs": [
                {
                    "internalType": "address",
                    "name": "recipient",
                    "type": "address"
                },
                {
                    "internalType": "string",
                    "name": "_tokenURI",
                    "type": "string"
                }
            ],
            "name": "mintNFT",
            "outputs": [
                {
                    "internalType": "uint256",
                    "name": "",
                    "type": "uint256"
                }
            ],
            "stateMutability": "nonpayable",
            "type": "function"
        },
        {
            "inputs": [],
            "name": "name",
            "outputs": [
                {
                    "internalType": "string",
                    "name": "",
                    "type": "string"
                }
            ],
            "stateMutability": "view",
            "type": "function"
        },
        {
            "inputs": [],
            "name": "owner",
            "outputs": [
                {
                    "internalType": "address",
                    "name": "",
                    "type": "address"
                }
            ],
            "stateMutability": "view",
            "type": "function"
        },
        {
            "inputs": [
                {
                    "internalType": "uint256",
                    "name": "tokenId",
                    "type": "uint256"
                }
            ],
            "name": "ownerOf",
            "outputs": [
                {
                    "internalType": "address",
                    "name": "",
                    "type": "address"
                }
            ],
            "stateMutability": "view",
            "type": "function"
        },
        {
            "inputs": [],
            "name": "renounceOwnership",
            "outputs": [],
            "stateMutability": "nonpayable",
            "type": "function"
        },
        {
            "inputs": [
                {
                    "internalType": "address",
                    "name": "from",
                    "type": "address"
                },
                {
                    "internalType": "address",
                    "name": "to",
                    "type": "address"
                },
                {
                    "internalType": "uint256",
                    "name": "tokenId",
                    "type": "uint256"
                }
            ],
            "name": "safeTransferFrom",
            "outputs": [],
            "stateMutability": "nonpayable",
            "type": "function"
        },
        {
            "inputs": [
                {
                    "internalType": "address",
                    "name": "from",
                    "type": "address"
                },
                {
                    "internalType": "address",
                    "name": "to",
                    "type": "address"
                },
                {
                    "internalType": "uint256",
                    "name": "tokenId",
                    "type": "uint256"
                },
                {
                    "internalType": "bytes",
                    "name": "_data",
                    "type": "bytes"
                }
            ],
            "name": "safeTransferFrom",
            "outputs": [],
            "stateMutability": "nonpayable",
            "type": "function"
        },
        {
            "inputs": [
                {
                    "internalType": "address",
                    "name": "operator",
                    "type": "address"
                },
                {
                    "internalType": "bool",
                    "name": "approved",
                    "type": "bool"
                }
            ],
            "name": "setApprovalForAll",
            "outputs": [],
            "stateMutability": "nonpayable",
            "type": "function"
        },
        {
            "inputs": [
                {
                    "internalType": "string",
                    "name": "baseURI_",
                    "type": "string"
                }
            ],
            "name": "setBaseURI",
            "outputs": [],
            "stateMutability": "nonpayable",
            "type": "function"
        },
        {
            "inputs": [
                {
                    "internalType": "bytes4",
                    "name": "interfaceId",
                    "type": "bytes4"
                }
            ],
            "name": "supportsInterface",
            "outputs": [
                {
                    "internalType": "bool",
                    "name": "",
                    "type": "bool"
                }
            ],
            "stateMutability": "view",
            "type": "function"
        },
        {
            "inputs": [],
            "name": "symbol",
            "outputs": [
                {
                    "internalType": "string",
                    "name": "",
                    "type": "string"
                }
            ],
            "stateMutability": "view",
            "type": "function"
        },
        {
            "inputs": [
                {
                    "internalType": "uint256",
                    "name": "tokenId",
                    "type": "uint256"
                }
            ],
            "name": "tokenURI",
            "outputs": [
                {
                    "internalType": "string",
                    "name": "",
                    "type": "string"
                }
            ],
            "stateMutability": "view",
            "type": "function"
        },
        {
            "inputs": [
                {
                    "internalType": "address",
                    "name": "from",
                    "type": "address"
                },
                {
                    "internalType": "address",
                    "name": "to",
                    "type": "address"
                },
                {
                    "internalType": "uint256",
                    "name": "tokenId",
                    "type": "uint256"
                }
            ],
            "name": "transferFrom",
            "outputs": [],
            "stateMutability": "nonpayable",
            "type": "function"
        },
        {
            "inputs": [
                {
                    "internalType": "address",
                    "name": "newOwner",
                    "type": "address"
                }
            ],
            "name": "transferOwnership",
            "outputs": [],
            "stateMutability": "nonpayable",
            "type": "function"
        }
    ],
    "bytecode": "60806040523480156200001157600080fd5b50604080518082018252600680825265105090d3919560d21b6020808401828152855180870190965292855284015281519192916200005391600091620000e2565b50805162000069906001906020840190620000e2565b50505062000086620000806200008c60201b60201c565b62000090565b620001c4565b3390565b600680546001600160a01b038381166001600160a01b0319831681179093556040519116919082907f8be0079c531659141344cd1fd0a4f28419497f9722a3daafe3b4186f6b6457e090600090a35050565b828054620000f09062000188565b90600052602060002090601f0160209004810192826200011457600085556200015f565b82601f106200012f57805160ff19168380011785556200015f565b828001600101855582156200015f579182015b828111156200015f57825182559160200191906001019062000142565b506200016d92915062000171565b5090565b5b808211156200016d576000815560010162000172565b600181811c908216806200019d57607f821691505b602082108103620001be57634e487b7160e01b600052602260045260246000fd5b50919050565b61191480620001d46000396000f3fe608060405234801561001057600080fd5b50600436106101165760003560e01c8063715018a6116100a2578063b88d4fde11610071578063b88d4fde14610239578063c87b56dd1461024c578063e985e9c51461025f578063eacabe1414610272578063f2fde38b1461028557600080fd5b8063715018a6146102055780638da5cb5b1461020d57806395d89b411461021e578063a22cb4651461022657600080fd5b806323b872dd116100e957806323b872dd1461019857806342842e0e146101ab57806355f804b3146101be5780636352211e146101d157806370a08231146101e457600080fd5b806301ffc9a71461011b57806306fdde0314610143578063081812fc14610158578063095ea7b314610183575b600080fd5b61012e610129366004611339565b610298565b60405190151581526020015b60405180910390f35b61014b6102ea565b60405161013a91906113ae565b61016b6101663660046113c1565b61037c565b6040516001600160a01b03909116815260200161013a565b6101966101913660046113f6565b610416565b005b6101966101a6366004611420565b61058b565b6101966101b9366004611420565b6105c1565b6101966101cc366004611508565b6105dc565b61016b6101df3660046113c1565b61061d565b6101f76101f236600461153d565b610694565b60405190815260200161013a565b61019661071b565b6006546001600160a01b031661016b565b61014b610751565b610196610234366004611558565b610760565b610196610247366004611594565b610824565b61014b61025a3660046113c1565b61085c565b61012e61026d366004611610565b6109dd565b6101f7610280366004611643565b610a0b565b61019661029336600461153d565b610a6e565b60006001600160e01b031982166380ac58cd60e01b14806102c957506001600160e01b03198216635b5e139f60e01b145b806102e457506301ffc9a760e01b6001600160e01b03198316145b92915050565b6060600080546102f990611691565b80601f016020809104026020016040519081016040528092919081815260200182805461032590611691565b80156103725780601f1061034757610100808354040283529160200191610372565b820191906000526020600020905b81548152906001019060200180831161035557829003601f168201915b5050505050905090565b6000818152600260205260408120546001600160a01b03166103fa5760405162461bcd60e51b815260206004820152602c60248201527f4552433732313a20617070726f76656420717565727920666f72206e6f6e657860448201526b34b9ba32b73a103a37b5b2b760a11b60648201526084015b60405180910390fd5b506000908152600460205260409020546001600160a01b031690565b60006104218261061d565b9050806001600160a01b0316836001600160a01b03160361048e5760405162461bcd60e51b815260206004820152602160248201527f4552433732313a20617070726f76616c20746f2063757272656e74206f776e656044820152603960f91b60648201526084016103f1565b336001600160a01b03821614806104aa57506104aa81336109dd565b61051c5760405162461bcd60e51b815260206004820152603860248201527f4552433732313a20617070726f76652063616c6c6572206973206e6f74206f7760448201527f6e6572206e6f7220617070726f76656420666f7220616c6c000000000000000060648201526084016103f1565b600082815260046020526040902080546001600160a01b0319166001600160a01b03851690811790915582906105518261061d565b6001600160a01b03167f8c5be1e5ebec7d5bd14f71427d1e84f3dd0314c0f7b2291e5b200ac8c7c3b92560405160405180910390a4505050565b6105953382610b09565b6105b15760405162461bcd60e51b81526004016103f1906116cb565b6105bc838383610be0565b505050565b6105bc83838360405180602001604052806000815250610824565b6006546001600160a01b031633146106065760405162461bcd60e51b81526004016103f19061171c565b805161061990600990602084019061128a565b5050565b6000818152600260205260408120546001600160a01b0316806102e45760405162461bcd60e51b815260206004820152602960248201527f4552433732313a206f776e657220717565727920666f72206e6f6e657869737460448201526832b73a103a37b5b2b760b91b60648201526084016103f1565b60006001600160a01b0382166106ff5760405162461bcd60e51b815260206004820152602a60248201527f4552433732313a2062616c616e636520717565727920666f7220746865207a65604482015269726f206164647265737360b01b60648201526084016103f1565b506001600160a01b031660009081526003602052604090205490565b6006546001600160a01b031633146107455760405162461bcd60e51b81526004016103f19061171c565b61074f6000610dcd565b565b6060600180546102f990611691565b6001600160a01b03821633036107b85760405162461bcd60e51b815260206004820152601960248201527f4552433732313a20617070726f766520746f2063616c6c65720000000000000060448201526064016103f1565b3360008181526005602090815260408083206001600160a01b03871680855290835292819020805460ff191686151590811790915590519081529192917f17307eab39ab6107e8899845ad3d59bd9653f200f220920489ca2b5937696c31910160405180910390a35050565b61082e3383610b09565b61084a5760405162461bcd60e51b81526004016103f1906116cb565b61085684848484610e1f565b50505050565b6000818152600260205260409020546060906001600160a01b03166108db5760405162461bcd60e51b815260206004820152602f60248201527f4552433732314d657461646174613a2055524920717565727920666f72206e6f60448201526e3732bc34b9ba32b73a103a37b5b2b760891b60648201526084016103f1565b600082815260086020526040812080546108f490611691565b80601f016020809104026020016040519081016040528092919081815260200182805461092090611691565b801561096d5780601f106109425761010080835404028352916020019161096d565b820191906000526020600020905b81548152906001019060200180831161095057829003601f168201915b50505050509050600061097e610e52565b90508051600003610990575092915050565b8151156109c25780826040516020016109aa929190611751565b60405160208183030381529060405292505050919050565b806109cc85610e61565b6040516020016109aa929190611751565b6001600160a01b03918216600090815260056020908152604080832093909416825291909152205460ff1690565b6006546000906001600160a01b03163314610a385760405162461bcd60e51b81526004016103f19061171c565b610a46600780546001019055565b6000610a5160075490565b9050610a5d8482610f62565b610a678184610f7c565b9392505050565b6006546001600160a01b03163314610a985760405162461bcd60e51b81526004016103f19061171c565b6001600160a01b038116610afd5760405162461bcd60e51b815260206004820152602660248201527f4f776e61626c653a206e6577206f776e657220697320746865207a65726f206160448201526564647265737360d01b60648201526084016103f1565b610b0681610dcd565b50565b6000818152600260205260408120546001600160a01b0316610b825760405162461bcd60e51b815260206004820152602c60248201527f4552433732313a206f70657261746f7220717565727920666f72206e6f6e657860448201526b34b9ba32b73a103a37b5b2b760a11b60648201526084016103f1565b6000610b8d8361061d565b9050806001600160a01b0316846001600160a01b03161480610bb45750610bb481856109dd565b80610bd85750836001600160a01b0316610bcd8461037c565b6001600160a01b0316145b949350505050565b826001600160a01b0316610bf38261061d565b6001600160a01b031614610c575760405162461bcd60e51b815260206004820152602560248201527f4552433732313a207472616e736665722066726f6d20696e636f72726563742060448201526437bbb732b960d91b60648201526084016103f1565b6001600160a01b038216610cb95760405162461bcd60e51b8152602060048201526024808201527f4552433732313a207472616e7366657220746f20746865207a65726f206164646044820152637265737360e01b60648201526084016103f1565b600081815260046020526040812080546001600160a01b03191690558190610ce08261061d565b6001600160a01b03167f8c5be1e5ebec7d5bd14f71427d1e84f3dd0314c0f7b2291e5b200ac8c7c3b92560405160405180910390a46001600160a01b0383166000908152600360205260408120805460019290610d3e908490611796565b90915550506001600160a01b0382166000908152600360205260408120805460019290610d6c9084906117ad565b909155505060008181526002602052604080822080546001600160a01b0319166001600160a01b0386811691821790925591518493918716917fddf252ad1be2c89b69c2b068fc378daa952ba7f163c4a11628f55a4df523b3ef91a4505050565b600680546001600160a01b038381166001600160a01b0319831681179093556040519116919082907f8be0079c531659141344cd1fd0a4f28419497f9722a3daafe3b4186f6b6457e090600090a35050565b610e2a848484610be0565b610e3684848484611014565b6108565760405162461bcd60e51b81526004016103f1906117c5565b6060600980546102f990611691565b606081600003610e885750506040805180820190915260018152600360fc1b602082015290565b8160005b8115610eb25780610e9c81611817565b9150610eab9050600a83611846565b9150610e8c565b60008167ffffffffffffffff811115610ecd57610ecd61145c565b6040519080825280601f01601f191660200182016040528015610ef7576020820181803683370190505b5090505b8415610bd857610f0c600183611796565b9150610f19600a8661185a565b610f249060306117ad565b60f81b818381518110610f3957610f3961186e565b60200101906001600160f81b031916908160001a905350610f5b600a86611846565b9450610efb565b610619828260405180602001604052806000815250611115565b6000828152600260205260409020546001600160a01b0316610ff55760405162461bcd60e51b815260206004820152602c60248201527f4552433732314d657461646174613a2055524920736574206f66206e6f6e657860448201526b34b9ba32b73a103a37b5b2b760a11b60648201526084016103f1565b600082815260086020908152604090912082516105bc9284019061128a565b60006001600160a01b0384163b1561110a57604051630a85bd0160e11b81526001600160a01b0385169063150b7a0290611058903390899088908890600401611884565b6020604051808303816000875af1925050508015611093575060408051601f3d908101601f19168201909252611090918101906118c1565b60015b6110f0573d8080156110c1576040519150601f19603f3d011682016040523d82523d6000602084013e6110c6565b606091505b5080516000036110e85760405162461bcd60e51b81526004016103f1906117c5565b805181602001fd5b6001600160e01b031916630a85bd0160e11b149050610bd8565b506001949350505050565b61111f8383611148565b61112c6000848484611014565b6105bc5760405162461bcd60e51b81526004016103f1906117c5565b6001600160a01b03821661119e5760405162461bcd60e51b815260206004820181905260248201527f4552433732313a206d696e7420746f20746865207a65726f206164647265737360448201526064016103f1565b6000818152600260205260409020546001600160a01b0316156112035760405162461bcd60e51b815260206004820152601c60248201527f4552433732313a20746f6b656e20616c7265616479206d696e7465640000000060448201526064016103f1565b6001600160a01b038216600090815260036020526040812080546001929061122c9084906117ad565b909155505060008181526002602052604080822080546001600160a01b0319166001600160a01b03861690811790915590518392907fddf252ad1be2c89b69c2b068fc378daa952ba7f163c4a11628f55a4df523b3ef908290a45050565b82805461129690611691565b90600052602060002090601f0160209004810192826112b857600085556112fe565b82601f106112d157805160ff19168380011785556112fe565b828001600101855582156112fe579182015b828111156112fe5782518255916020019190600101906112e3565b5061130a92915061130e565b5090565b5b8082111561130a576000815560010161130f565b6001600160e01b031981168114610b0657600080fd5b60006020828403121561134b57600080fd5b8135610a6781611323565b60005b83811015611371578181015183820152602001611359565b838111156108565750506000910152565b6000815180845261139a816020860160208601611356565b601f01601f19169290920160200192915050565b602081526000610a676020830184611382565b6000602082840312156113d357600080fd5b5035919050565b80356001600160a01b03811681146113f157600080fd5b919050565b6000806040838503121561140957600080fd5b611412836113da565b946020939093013593505050565b60008060006060848603121561143557600080fd5b61143e846113da565b925061144c602085016113da565b9150604084013590509250925092565b634e487b7160e01b600052604160045260246000fd5b600067ffffffffffffffff8084111561148d5761148d61145c565b604051601f8501601f19908116603f011681019082821181831017156114b5576114b561145c565b816040528093508581528686860111156114ce57600080fd5b858560208301376000602087830101525050509392505050565b600082601f8301126114f957600080fd5b610a6783833560208501611472565b60006020828403121561151a57600080fd5b813567ffffffffffffffff81111561153157600080fd5b610bd8848285016114e8565b60006020828403121561154f57600080fd5b610a67826113da565b6000806040838503121561156b57600080fd5b611574836113da565b91506020830135801515811461158957600080fd5b809150509250929050565b600080600080608085870312156115aa57600080fd5b6115b3856113da565b93506115c1602086016113da565b925060408501359150606085013567ffffffffffffffff8111156115e457600080fd5b8501601f810187136115f557600080fd5b61160487823560208401611472565b91505092959194509250565b6000806040838503121561162357600080fd5b61162c836113da565b915061163a602084016113da565b90509250929050565b6000806040838503121561165657600080fd5b61165f836113da565b9150602083013567ffffffffffffffff81111561167b57600080fd5b611687858286016114e8565b9150509250929050565b600181811c908216806116a557607f821691505b6020821081036116c557634e487b7160e01b600052602260045260246000fd5b50919050565b60208082526031908201527f4552433732313a207472616e736665722063616c6c6572206973206e6f74206f6040820152701ddb995c881b9bdc88185c1c1c9bdd9959607a1b606082015260800190565b6020808252818101527f4f776e61626c653a2063616c6c6572206973206e6f7420746865206f776e6572604082015260600190565b60008351611763818460208801611356565b835190830190611777818360208801611356565b01949350505050565b634e487b7160e01b600052601160045260246000fd5b6000828210156117a8576117a8611780565b500390565b600082198211156117c0576117c0611780565b500190565b60208082526032908201527f4552433732313a207472616e7366657220746f206e6f6e20455243373231526560408201527131b2b4bb32b91034b6b83632b6b2b73a32b960711b606082015260800190565b60006001820161182957611829611780565b5060010190565b634e487b7160e01b600052601260045260246000fd5b60008261185557611855611830565b500490565b60008261186957611869611830565b500690565b634e487b7160e01b600052603260045260246000fd5b6001600160a01b03858116825284166020820152604081018390526080606082018190526000906118b790830184611382565b9695505050505050565b6000602082840312156118d357600080fd5b8151610a678161132356fea26469706673582212209642703069e4ac0f996b1d739a0e352d41df8d341da63f23057949435ab66faf64736f6c634300080d0033",
    "sourcePath": "/home/alankrit/Desktop/rapidinnovation-solidity/hardhat/contracts/ABCNFT.sol",
    "compiler": {
        "name": "solc",
        "version": "0.8.13+commit.abaa5c0e"
    },
    "functionHashes": {
        "approve(address,uint256)": "095ea7b3",
        "balanceOf(address)": "70a08231",
        "getApproved(uint256)": "081812fc",
        "isApprovedForAll(address,address)": "e985e9c5",
        "mintNFT(address,string)": "eacabe14",
        "name()": "06fdde03",
        "owner()": "8da5cb5b",
        "ownerOf(uint256)": "6352211e",
        "renounceOwnership()": "715018a6",
        "safeTransferFrom(address,address,uint256)": "42842e0e",
        "safeTransferFrom(address,address,uint256,bytes)": "b88d4fde",
        "setApprovalForAll(address,bool)": "a22cb465",
        "setBaseURI(string)": "55f804b3",
        "supportsInterface(bytes4)": "01ffc9a7",
        "symbol()": "95d89b41",
        "tokenURI(uint256)": "c87b56dd",
        "transferFrom(address,address,uint256)": "23b872dd",
        "transferOwnership(address)": "f2fde38b"
    },
    "gasEstimates": {
        "creation": {
            "codeDepositCost": "1284000",
            "executionCost": "infinite",
            "totalCost": "infinite"
        },
        "external": {
            "approve(address,uint256)": "infinite",
            "balanceOf(address)": "2700",
            "getApproved(uint256)": "4760",
            "isApprovedForAll(address,address)": "infinite",
            "mintNFT(address,string)": "infinite",
            "name()": "infinite",
            "owner()": "2376",
            "ownerOf(uint256)": "2645",
            "renounceOwnership()": "28140",
            "safeTransferFrom(address,address,uint256)": "infinite",
            "safeTransferFrom(address,address,uint256,bytes)": "infinite",
            "setApprovalForAll(address,bool)": "26714",
            "setBaseURI(string)": "infinite",
            "supportsInterface(bytes4)": "534",
            "symbol()": "infinite",
            "tokenURI(uint256)": "infinite",
            "transferFrom(address,address,uint256)": "infinite",
            "transferOwnership(address)": "28422"
        },
        "internal": {
            "_baseURI()": "infinite",
            "_setTokenURI(uint256,string memory)": "infinite"
        }
    }
}